:02000300037286
:02000500039264
:02000700000EE9
:030000000203A058
:0C03A000787FE4F6D8FD7581200202F39E
:03002300020330A5
:10033000C0E0C0F0C083C082C0D075D000C000C093
:1003400001C002C003C004C005C006C00730980742
:10035000C2987F01120138D007D006D005D004D052
:1003600003D002D001D000D0D0D082D083D0F0D042
:02037000E03279
:10037200759852758921758BFD758DFDD28E75A884
:10038200907F011200267F02120026E4FF0200AFD6
:0E0392007D327F0112015FA292B3929280F23F
:10000E002093087F011201383093FD7D0A7F021282
:04001E00015F80EC12
:10002600EFD3940240037FFF22740F2F2FF8E620B0
:10003600E5F4C2AFE64430F6D2AFAE0CEEC39F5045
:10004600210E74142EF8E6F908E618BE020274FFB3
:10005600FDED69600909E71919F7090980F3161614
:1000660080DAEED39F400405810581EED39F4022BE
:1000760074142EF808E6F9EEB50C02A981180606E6
:10008600E6FDED6960091919E70909F71980F31EFC
:1000960080D9EF2414F8E604F8EF2F0490000393B8
:0900A600F608EF2F93F67F00220B
:1000AF00EFD3940240037FFF22EF23240FF8E630B3
:1000BF00E5F4C2AFE6548CF6D2AFE50CB5070A747F
:1000CF00142FF8E6F581020239502E74152FF8E639
:1000DF00BF020274FFFD18E6F974142FF8FBE6FC5B
:1000EF00E96C6008A805E7F61D1980F4A803A605BA
:1000FF001FE50CB507E37F002274152FF8E6FD18F6
:10010F0086010F74142FF8A601088604E50CB507B5
:10011F0002AC81ED6C60080D09A805E6F780F4E5E7
:09012F000CB507DE89817F002276
:10013800EFD3940240037FFF22EF23240FF8C2AFCE
:10014800E630E50530E002D2E4D2E2C6D2AF7F0065
:0701580030E2010F02020D6D
:10015F008FF0E4FFFEE50C23240EF8C2A930F70D53
:10016F007F08E6600B2DF660325030800730F106C5
:10017F00EDF660277E020830F010C2AFE610E725DB
:10018F000E30E20CD2AF7F048014C2AFE610E71539
:10019F0054EC4EF6D2AFD2A90202397F0808EF44D1
:0F01AF0083F4C2AF56C6D2AFD2A954804FFF22FD
:03000B000201C32C
:1001BE00C2AF80FE321201C285D00B75D008AAE004
:1001CE00C28CE58A24F7F58AE58C34D8F58CD28C6E
:1001DE00EC2415F8E6BC020274FFC39581B414003A
:1001EE0040CE7903780E16E608700BC2AFE630E10A
:1001FE00034418F6D2AF08D9EDEA8BD030000122B5
:10020E00D50DFCC0E0C0D0C0F0C083C082C000C01D
:10021E0001C002C003C004C005C006C007E50C2320
:10022E00240FF87440C2AF46F6D2AFD200E50CFFF1
:10023E0023240FF80F0808BF03047F00780FE63061
:10024E00E4F200E50CC39F5020050C7414250CF845
:10025E00E6FDA68108E6AE0CBE020274FFCDF8E8FC
:10026E006D60E008E6C0E080F6E50CD39F4027E520
:10027E000C2415F8E6AE0CBE020274FFFD18E6CD96
:10028E00F8E5816D6006D0E0F61880F5E50C2414D3
:10029E00C8F6150C80D3750D05E50C23240FF87FD9
:1002AE0004C2AFE610E61E30E00310E20C7F003011
:0502BE00E10730E3043C
:1002C3007F0854F4547CC6D2AF54804207C2002244
:1002D300F6D2AFD007D006D005D004D003D002D0D9
:1002E30001D000D082D083D0F0D0D0D0E0C20022A1
:1002F3007814A68174026006FF0876FFDFFB7F0394
:10030300E4780EF608F608DFFA780F7630900003EB
:10031300740193C0E0E493C0E0750D054389017552
:0D0323008AF0758CD8D28CD2AFD2A92202FC
:00000001FF
