:0300000002009B60
:0C009B00787FE4F6D8FD75810B02007F31
:10006300EF1FAC0670011E4C6011758CFC758A186D
:0C007300D28C308DFDC28DC28C80E52245
:10007F00D2A8D288D2AFE4F5A07FE87E0312006346
:0C008F0075A0FF7FE87E0312006380EA8A
:03000300020006F2
:10000600C0E0C0D075D000C000C004C005C006C0A6
:0100160007E2
:10001700750B50750AC3750900750800C2937808F7
:0D00270074FF120045EC4D4E4F70F3D29364
:0F003400D007D006D005D004D000D0D0D0E03215
:100043007401FF3395E0FEFDFC080808E6CF2FF6A8
:1000530018E6CE3EF618E6CD3DF618E6CC3CF62281
:00000001FF
