:030000000200AA51
:0C00AA00787FE4F6D8FD758108020003A1
:10004A00D2A2E4FDFCC3ED9FEC9E5015E4FBFA0B33
:10005A00BB00010ABA04F8BBFBF50DBD00010C8018
:03006A00E4C2A24B
:01006D002270
:0D0090008FA0C2A0C2A17F0A7E0002004A1C
:0D009D008FA0D2A0C2A17F0A7E0002004AFF
:02006E00A907E0
:0F007000E954F0FF120090E9C454F0FF02009031
:02007F00A907CF
:0F008100E954F0FF12009DE9C454F0FF02009D06
:100003007F2812006E7F0112006E7F0C12006E7F3C
:100013008012006E7F0612006E758920758DFD7546
:100023009850D28E3098FD859908AF0812007FC290
:1000330098E508B408057F0112006EE508B40DE4E5
:070043007FC012006E80DD9A
:00000001FF
