:03000000020003F8
:0C000300787FE4F6D8FD75811602004AF3
:1000B5000E08407924301912027800108906C740CD
:0700A3008508807FE07E93D9
:0B00AA00EF1FAC0670011E4C70F62228
:10008F00D2A1D2A0C2A01200A3D2A0D2A11200A3CB
:04009F00C2A180F08A
:10000F0002008FE493A3F8E493A34003F68001F278
:10001F0008DFF48029E493A3F85407240CC8C333F2
:10002F00C4540F4420C8834004F456800146F6DFC1
:10003F00E4800B01020408102040809000B5E47E9C
:10004F00019360BCA3FF543F30E509541FFEE493B6
:10005F00A360010ECF54C025E060A840B8E493A37D
:10006F00FAE493A3F8E493A3C8C582C8CAC583CAA8
:10007F00F0A3C8C582C8CAC583CADFE9DEE780BE60
:0100C500003A
:00000001FF
