:03000000020006F5
:0C000600787FE4F6D8FD75811402004DEF
:0C0129000A0B40792430191202780010F3
:0800C900F8E6F5A07F0A7E00B5
:1000D100EF1FAC0670011E4C6014758901758CFC14
:0F00E100758A18D28C308DFDC28DC28C80E222C0
:03000300020112E5
:10011200C0E0C0D0050AD3E50A6480949E4003750E
:070122000A00D0D0D0E0324A
:10009200D2AFD2A8D288D2AAD28AE50A75F00A12C1
:1000A20000F0F509E50A75F00A1200F085F008C2C1
:1000B200B0740B25091200C9D2B0C2B1740B250865
:0700C2001200C9D2B180D386
:10001200020092E493A3F8E493A34003F68001F272
:1000220008DFF48029E493A3F85407240CC8C333EF
:10003200C4540F4420C8834004F456800146F6DFBE
:10004200E4800B0102040810204080900129E47E24
:10005200019360BCA3FF543F30E509541FFEE493B3
:10006200A360010ECF54C025E060A840B8E493A37A
:10007200FAE493A3F8E493A3C8C582C8CAC583CAA5
:10008200F0A3C8C582C8CAC583CADFE9DEE780BE5D
:0101350000C9
:1000F000C2D530F707B2D563F0FF05F030E70CB298
:10010000D5F4048463F0FF05F080018430D502F457
:020110000422C7
:00000001FF
