:030000000201B347
:0C01B300787FE4F6D8FD75810E0200484C
:1000BF002068656C6C6F007472696E682076616E73
:1000CF00206B68616E68003137353532353230322A
:0800DF003136303030313900B8
:10018F00E4FDFCC3ED9FEC9E50070DBD00010C80FC
:01019F00F26D
:0101A000223C
:10010A00E4FDFCC3ED9FEC9E5015E4FBFA0BBB002B
:0F011A00010AEB647D4A70F50DBD00010C80E415
:0101290022B3
:100166008F0B8E0A8D098C08780874FF1200A1EC9B
:060176004D4E4F70F32214
:03017C0012014A23
:10017F00D2927F037E0012018FC2927F3202018FD3
:10014A00EF139284EFC313139285EF1313543F13E3
:0C015A009286EF131313541F1392872298
:1001A100AB07EBC4540FFF12017CAF0312014A02EB
:0201B100017FCC
:0C01BF007F011201A17F0A7E0002018F67
:10000300E4FF12014A7F147E0012010AC290C291DA
:100013007F0312017C7F057E0012010A12017F7F9C
:10002300647E0012018F12017F7F0212014A1201C6
:100033007F7F281201A17F0C1201A17F061201A16B
:050043007F010201A194
:10012A00ED7006EF2480FA8004EF24C0FA7FE87E9F
:10013A000312018FAF021201A17F327E0002018FEA
:0801CB00D2901201A1C29022A2
:1000E7008B0C8A0D890EAB0CAA0DA90E120086FF88
:1000F70060101201CB7401250EF50EE4350DF50DD8
:0301070080E4226F
:100048001200037BFF7A0079BF1200E77FE87E0386
:1000580012010A1201BFE4FDFF12012A7BFF7A0098
:1000680079C61200E77FE87E0312010A7D01E4FFEA
:0E00780012012A7BFF7A0079D61200E780FE83
:10008600BB010689828A83E0225002E722BBFE0278
:09009600E32289828A83E49322AB
:10009F007401FF3395E0FEFDFC080808E6CF2FF64C
:1000AF0018E6CE3EF618E6CD3DF618E6CC3CF62225
:00000001FF
