:03000000020003F8
:0C000300787FE4F6D8FD75811C02004AED
:10018D000E0E407924301912027800108906C740EE
:08017A00F8E6F5807FE87E0342
:0B018200EF1FAC0670011E4C70F6224F
:10011A00D2A1D2A0E4F50CF50DAE0CAF0D7C007D9A
:10012A000A12008F8E0A8F0BAE0CAF0D7C007D0A6F
:10013A0012008F8C088D09E4F51CC2A0740E250BE1
:10014A0012017AD2A0C2A1740E250912017AD2A193
:10015A00051CD3E51C6480948A40DF050DE50D700B
:10016A0002050CC39428E50C6480948040AB80A4FB
:10000F0002011AE493A3F8E493A34003F68001F2EC
:10001F0008DFF48029E493A3F85407240CC8C333F2
:10002F00C4540F4420C8834004F456800146F6DFC1
:10003F00E4800B010204081020408090018DE47EC3
:10004F00019360BCA3FF543F30E509541FFEE493B6
:10005F00A360010ECF54C025E060A840B8E493A37D
:10006F00FAE493A3F8E493A3C8C582C8CAC583CAA8
:10007F00F0A3C8C582C8CAC583CADFE9DEE780BE60
:01019D000061
:10008F00C2D5EC30E709B2D5E4C39DFDE49CFCEE8C
:10009F0030E715B2D5E4C39FFFE49EFE1200C5C33F
:1000AF00E49DFDE49CFC80031200C530D507C3E43A
:0600BF009FFFE49EFE22FB
:1000C500BC000BBE0029EF8DF084FFADF022E4CC1F
:1000D500F875F008EF2FFFEE33FEEC33FCEE9DECE8
:1000E500984005FCEE9DFE0FD5F0E9E4CEFD22ED2E
:1000F500F8F5F0EE8420D21CFEADF075F008EF2F78
:10010500FFED33FD4007985006D5F0F222C398FD68
:050115000FD5F0EA2205
:00000001FF
